{
  "_format": "hh3-artifact-1",
  "contractName": "AVAXStaking",
  "sourceName": "contracts/AVAXStaking.sol",
  "abi": [
    {
      "inputs": [],
      "stateMutability": "nonpayable",
      "type": "constructor"
    },
    {
      "anonymous": false,
      "inputs": [
        {
          "indexed": true,
          "internalType": "address",
          "name": "owner",
          "type": "address"
        },
        {
          "indexed": false,
          "internalType": "uint256",
          "name": "amount",
          "type": "uint256"
        },
        {
          "indexed": false,
          "internalType": "uint256",
          "name": "timestamp",
          "type": "uint256"
        }
      ],
      "name": "EmergencyWithdraw",
      "type": "event"
    },
    {
      "anonymous": false,
      "inputs": [
        {
          "indexed": true,
          "internalType": "address",
          "name": "user",
          "type": "address"
        },
        {
          "indexed": false,
          "internalType": "uint256",
          "name": "amount",
          "type": "uint256"
        },
        {
          "indexed": false,
          "internalType": "uint256",
          "name": "timestamp",
          "type": "uint256"
        }
      ],
      "name": "RewardsClaimed",
      "type": "event"
    },
    {
      "anonymous": false,
      "inputs": [
        {
          "indexed": true,
          "internalType": "address",
          "name": "user",
          "type": "address"
        },
        {
          "indexed": false,
          "internalType": "uint256",
          "name": "amount",
          "type": "uint256"
        },
        {
          "indexed": false,
          "internalType": "uint256",
          "name": "timestamp",
          "type": "uint256"
        }
      ],
      "name": "Staked",
      "type": "event"
    },
    {
      "anonymous": false,
      "inputs": [
        {
          "indexed": true,
          "internalType": "address",
          "name": "user",
          "type": "address"
        },
        {
          "indexed": false,
          "internalType": "uint256",
          "name": "amount",
          "type": "uint256"
        },
        {
          "indexed": false,
          "internalType": "uint256",
          "name": "timestamp",
          "type": "uint256"
        }
      ],
      "name": "Unstaked",
      "type": "event"
    },
    {
      "stateMutability": "payable",
      "type": "fallback"
    },
    {
      "inputs": [],
      "name": "MINIMUM_STAKE",
      "outputs": [
        {
          "internalType": "uint256",
          "name": "",
          "type": "uint256"
        }
      ],
      "stateMutability": "view",
      "type": "function"
    },
    {
      "inputs": [],
      "name": "REWARD_PRECISION",
      "outputs": [
        {
          "internalType": "uint256",
          "name": "",
          "type": "uint256"
        }
      ],
      "stateMutability": "view",
      "type": "function"
    },
    {
      "inputs": [],
      "name": "REWARD_RATE",
      "outputs": [
        {
          "internalType": "uint256",
          "name": "",
          "type": "uint256"
        }
      ],
      "stateMutability": "view",
      "type": "function"
    },
    {
      "inputs": [
        {
          "internalType": "address",
          "name": "stakerAddress",
          "type": "address"
        }
      ],
      "name": "calculateRewards",
      "outputs": [
        {
          "internalType": "uint256",
          "name": "",
          "type": "uint256"
        }
      ],
      "stateMutability": "view",
      "type": "function"
    },
    {
      "inputs": [],
      "name": "claimRewards",
      "outputs": [],
      "stateMutability": "nonpayable",
      "type": "function"
    },
    {
      "inputs": [],
      "name": "emergencyWithdraw",
      "outputs": [],
      "stateMutability": "nonpayable",
      "type": "function"
    },
    {
      "inputs": [],
      "name": "fundRewards",
      "outputs": [],
      "stateMutability": "payable",
      "type": "function"
    },
    {
      "inputs": [],
      "name": "getContractStats",
      "outputs": [
        {
          "internalType": "uint256",
          "name": "totalStaked",
          "type": "uint256"
        },
        {
          "internalType": "uint256",
          "name": "totalRewardsPaid",
          "type": "uint256"
        },
        {
          "internalType": "uint256",
          "name": "contractBalance",
          "type": "uint256"
        }
      ],
      "stateMutability": "view",
      "type": "function"
    },
    {
      "inputs": [
        {
          "internalType": "address",
          "name": "stakerAddress",
          "type": "address"
        }
      ],
      "name": "getStakerInfo",
      "outputs": [
        {
          "internalType": "uint256",
          "name": "stakedAmount",
          "type": "uint256"
        },
        {
          "internalType": "uint256",
          "name": "stakingTimestamp",
          "type": "uint256"
        },
        {
          "internalType": "uint256",
          "name": "pendingRewards",
          "type": "uint256"
        },
        {
          "internalType": "bool",
          "name": "isStaking",
          "type": "bool"
        }
      ],
      "stateMutability": "view",
      "type": "function"
    },
    {
      "inputs": [],
      "name": "owner",
      "outputs": [
        {
          "internalType": "address",
          "name": "",
          "type": "address"
        }
      ],
      "stateMutability": "view",
      "type": "function"
    },
    {
      "inputs": [],
      "name": "pauseStaking",
      "outputs": [],
      "stateMutability": "nonpayable",
      "type": "function"
    },
    {
      "inputs": [],
      "name": "stake",
      "outputs": [],
      "stateMutability": "payable",
      "type": "function"
    },
    {
      "inputs": [
        {
          "internalType": "address",
          "name": "",
          "type": "address"
        }
      ],
      "name": "stakers",
      "outputs": [
        {
          "internalType": "uint256",
          "name": "stakedAmount",
          "type": "uint256"
        },
        {
          "internalType": "uint256",
          "name": "stakingTimestamp",
          "type": "uint256"
        },
        {
          "internalType": "uint256",
          "name": "lastRewardClaim",
          "type": "uint256"
        },
        {
          "internalType": "bool",
          "name": "isStaking",
          "type": "bool"
        }
      ],
      "stateMutability": "view",
      "type": "function"
    },
    {
      "inputs": [],
      "name": "stakingPaused",
      "outputs": [
        {
          "internalType": "bool",
          "name": "",
          "type": "bool"
        }
      ],
      "stateMutability": "view",
      "type": "function"
    },
    {
      "inputs": [],
      "name": "totalRewardsPaid",
      "outputs": [
        {
          "internalType": "uint256",
          "name": "",
          "type": "uint256"
        }
      ],
      "stateMutability": "view",
      "type": "function"
    },
    {
      "inputs": [],
      "name": "totalStaked",
      "outputs": [
        {
          "internalType": "uint256",
          "name": "",
          "type": "uint256"
        }
      ],
      "stateMutability": "view",
      "type": "function"
    },
    {
      "inputs": [],
      "name": "unpauseStaking",
      "outputs": [],
      "stateMutability": "nonpayable",
      "type": "function"
    },
    {
      "inputs": [],
      "name": "unstake",
      "outputs": [],
      "stateMutability": "nonpayable",
      "type": "function"
    },
    {
      "stateMutability": "payable",
      "type": "receive"
    }
  ],
  "bytecode": "0x60806040526004805460ff19169055348015610019575f80fd5b50600180546001600160a01b03191633179055610c8b806100395f395ff3fe608060405260043610610100575f3560e01c8063817b1cd21161008e578063bbb781cc11610060578063bbb781cc146102a7578063db2e21bc146102d0578063dfe6b5d6146102e4578063f999c5061461030d578063ff18bf0b1461032157005b8063817b1cd2146102045780638da5cb5b146102195780639168ae721461025057806393f4bcde1461029357005b80633d6aa5e1116100d25780633d6aa5e1146101665780635997bb371461017b57806364ab86751461018f578063733bdef0146101ae57806374958e35146101ef57005b806308dbbb03146101095780632def662014610136578063372500ab1461014a5780633a4b66f11461015e57005b3661010757005b005b348015610114575f80fd5b5061012366038d7ea4c6800081565b6040519081526020015b60405180910390f35b348015610141575f80fd5b50610107610329565b348015610155575f80fd5b506101076104ed565b61010761065d565b348015610171575f80fd5b5061012361271081565b348015610186575f80fd5b50610123600a81565b34801561019a575f80fd5b506101236101a9366004610b48565b61080b565b3480156101b9575f80fd5b506101cd6101c8366004610b48565b6108ca565b604080519485526020850193909352918301521515606082015260800161012d565b3480156101fa575f80fd5b5061012360035481565b34801561020f575f80fd5b5061012360025481565b348015610224575f80fd5b50600154610238906001600160a01b031681565b6040516001600160a01b03909116815260200161012d565b34801561025b575f80fd5b506101cd61026a366004610b48565b5f6020819052908152604090208054600182015460028301546003909301549192909160ff1684565b34801561029e575f80fd5b5061010761093b565b3480156102b2575f80fd5b506004546102c09060ff1681565b604051901515815260200161012d565b3480156102db575f80fd5b50610107610971565b3480156102ef575f80fd5b50604080515f8082526020820152479181019190915260600161012d565b348015610318575f80fd5b50610107610a94565b610107610acd565b335f9081526020819052604090206003015460ff1661037d5760405162461bcd60e51b815260206004820152600b60248201526a4e6f74207374616b696e6760a81b60448201526064015b60405180910390fd5b335f8181526020819052604081208054909290919061039b9061080b565b335f9081526020819052604081208181556001810182905560028082018390556003909101805460ff19169055805492935084929091906103dd908490610b89565b909155505f90506103ee8284610ba2565b90508160035f8282546104019190610ba2565b90915550506040515f90339083908381818185875af1925050503d805f8114610445576040519150601f19603f3d011682016040523d82523d5f602084013e61044a565b606091505b505090508061046b5760405162461bcd60e51b815260040161037490610bb5565b6040805185815242602082015233917f7fc4727e062e336010f2c282598ef5f14facb3de68cf8195c2f23e1454b2b74e910160405180910390a282156104e6576040805184815242602082015233917fdacbdde355ba930696a362ea6738feb9f8bd52dfb3d81947558fd3217e23e325910160405180910390a25b5050505050565b335f9081526020819052604090206003015460ff1661053c5760405162461bcd60e51b815260206004820152600b60248201526a4e6f74207374616b696e6760a81b6044820152606401610374565b5f6105463361080b565b90505f811161058d5760405162461bcd60e51b81526020600482015260136024820152724e6f207265776172647320746f20636c61696d60681b6044820152606401610374565b335f90815260208190526040812042600290910155600380548392906105b4908490610ba2565b90915550506040515f90339083908381818185875af1925050503d805f81146105f8576040519150601f19603f3d011682016040523d82523d5f602084013e6105fd565b606091505b505090508061061e5760405162461bcd60e51b815260040161037490610bb5565b6040805183815242602082015233917fdacbdde355ba930696a362ea6738feb9f8bd52dfb3d81947558fd3217e23e32591015b60405180910390a25050565b60045460ff16156106b05760405162461bcd60e51b815260206004820152601b60248201527f5374616b696e672069732063757272656e746c792070617573656400000000006044820152606401610374565b66038d7ea4c680003410156107075760405162461bcd60e51b815260206004820152601b60248201527f4d696e696d756d207374616b6520697320302e303031204156415800000000006044820152606401610374565b335f9081526020819052604090206003015460ff161561075b5760405162461bcd60e51b815260206004820152600f60248201526e416c7265616479207374616b696e6760881b6044820152606401610374565b6040805160808101825234808252426020808401828152848601928352600160608601818152335f9081529384905296832095518655905190850155905160028085019190915593516003909301805460ff1916931515939093179092558254909291906107ca908490610ba2565b90915550506040805134815242602082015233917f1449c6dd7851abc30abf37f57715f492010519147cc2652fbc38202c18a6ee90910160405180910390a2565b6001600160a01b0381165f9081526020819052604081206003015460ff1661083457505f919050565b6001600160a01b0382165f9081526020818152604080832081516080810183528154815260018201549381019390935260028101549183018290526003015460ff161515606083015290919061088a9042610b89565b82519091505f6108a06127106301e13380610bde565b836108ac600a85610bde565b6108b69190610bde565b6108c09190610bf5565b9695505050505050565b6001600160a01b0381165f9081526020818152604080832081516080810183528154808252600183015494820185905260028301549382019390935260039091015460ff1615156060820152839283928392916109268861080b565b83606001519450945094509450509193509193565b6001546001600160a01b031633146109655760405162461bcd60e51b815260040161037490610c14565b6004805460ff19169055565b6001546001600160a01b0316331461099b5760405162461bcd60e51b815260040161037490610c14565b47806109e05760405162461bcd60e51b81526020600482015260146024820152734e6f2066756e647320746f20776974686472617760601b6044820152606401610374565b6001546040515f916001600160a01b03169083908381818185875af1925050503d805f8114610a2a576040519150601f19603f3d011682016040523d82523d5f602084013e610a2f565b606091505b5050905080610a505760405162461bcd60e51b815260040161037490610bb5565b600154604080518481524260208201526001600160a01b03909216917fbb757047c2b5f3974fe26b7c10f732e7bce710b0952a71082702781e62ae05959101610651565b6001546001600160a01b03163314610abe5760405162461bcd60e51b815260040161037490610c14565b6004805460ff19166001179055565b6001546001600160a01b03163314610af75760405162461bcd60e51b815260040161037490610c14565b5f3411610b465760405162461bcd60e51b815260206004820152601e60248201527f4d7573742073656e64204156415820746f2066756e64207265776172647300006044820152606401610374565b565b5f60208284031215610b58575f80fd5b81356001600160a01b0381168114610b6e575f80fd5b9392505050565b634e487b7160e01b5f52601160045260245ffd5b81810381811115610b9c57610b9c610b75565b92915050565b80820180821115610b9c57610b9c610b75565b6020808252600f908201526e151c985b9cd9995c8819985a5b1959608a1b604082015260600190565b8082028115828204841417610b9c57610b9c610b75565b5f82610c0f57634e487b7160e01b5f52601260045260245ffd5b500490565b60208082526021908201527f4f6e6c79206f776e65722063616e2063616c6c20746869732066756e6374696f6040820152603760f91b60608201526080019056fea26469706673582212206ad908243318182bb91ee785c3fb5f56796064aef52632b796e69ff938dfde8864736f6c63430008170033",
  "linkReferences": {},
  "deployedLinkReferences": {},
  "immutableReferences": {},
  "inputSourceName": "project/contracts/AVAXStaking.sol",
  "buildInfoId": "solc-0_8_23-a3f2a3ce3546951ccf3e9997decbe68a63ad6aee"
}