{
  "_format": "hh3-artifact-1",
  "contractName": "CryptoIslandNFT",
  "sourceName": "contracts/CryptoIslandNFT.sol",
  "abi": [
    {
      "inputs": [],
      "stateMutability": "nonpayable",
      "type": "constructor"
    },
    {
      "anonymous": false,
      "inputs": [
        {
          "indexed": true,
          "internalType": "address",
          "name": "to",
          "type": "address"
        },
        {
          "indexed": false,
          "internalType": "uint256",
          "name": "tokenId",
          "type": "uint256"
        },
        {
          "indexed": false,
          "internalType": "uint256",
          "name": "timestamp",
          "type": "uint256"
        }
      ],
      "name": "NFTMinted",
      "type": "event"
    },
    {
      "anonymous": false,
      "inputs": [
        {
          "indexed": true,
          "internalType": "address",
          "name": "from",
          "type": "address"
        },
        {
          "indexed": true,
          "internalType": "address",
          "name": "to",
          "type": "address"
        },
        {
          "indexed": true,
          "internalType": "uint256",
          "name": "tokenId",
          "type": "uint256"
        }
      ],
      "name": "Transfer",
      "type": "event"
    },
    {
      "inputs": [],
      "name": "MAX_SUPPLY",
      "outputs": [
        {
          "internalType": "uint256",
          "name": "",
          "type": "uint256"
        }
      ],
      "stateMutability": "view",
      "type": "function"
    },
    {
      "inputs": [],
      "name": "MINT_PRICE",
      "outputs": [
        {
          "internalType": "uint256",
          "name": "",
          "type": "uint256"
        }
      ],
      "stateMutability": "view",
      "type": "function"
    },
    {
      "inputs": [
        {
          "internalType": "address",
          "name": "account",
          "type": "address"
        }
      ],
      "name": "balanceOf",
      "outputs": [
        {
          "internalType": "uint256",
          "name": "",
          "type": "uint256"
        }
      ],
      "stateMutability": "view",
      "type": "function"
    },
    {
      "inputs": [],
      "name": "getMaxSupply",
      "outputs": [
        {
          "internalType": "uint256",
          "name": "",
          "type": "uint256"
        }
      ],
      "stateMutability": "pure",
      "type": "function"
    },
    {
      "inputs": [],
      "name": "getMintPrice",
      "outputs": [
        {
          "internalType": "uint256",
          "name": "",
          "type": "uint256"
        }
      ],
      "stateMutability": "pure",
      "type": "function"
    },
    {
      "inputs": [
        {
          "internalType": "uint256",
          "name": "tokenId",
          "type": "uint256"
        }
      ],
      "name": "getNFTMetadata",
      "outputs": [
        {
          "components": [
            {
              "internalType": "string",
              "name": "name",
              "type": "string"
            },
            {
              "internalType": "string",
              "name": "description",
              "type": "string"
            },
            {
              "internalType": "string",
              "name": "image",
              "type": "string"
            },
            {
              "internalType": "string[]",
              "name": "attributes",
              "type": "string[]"
            }
          ],
          "internalType": "struct CryptoIslandNFT.NFTMetadata",
          "name": "",
          "type": "tuple"
        }
      ],
      "stateMutability": "view",
      "type": "function"
    },
    {
      "inputs": [],
      "name": "mintNFT",
      "outputs": [],
      "stateMutability": "payable",
      "type": "function"
    },
    {
      "inputs": [
        {
          "internalType": "address",
          "name": "to",
          "type": "address"
        }
      ],
      "name": "mintTo",
      "outputs": [],
      "stateMutability": "nonpayable",
      "type": "function"
    },
    {
      "inputs": [],
      "name": "mintingPaused",
      "outputs": [
        {
          "internalType": "bool",
          "name": "",
          "type": "bool"
        }
      ],
      "stateMutability": "view",
      "type": "function"
    },
    {
      "inputs": [],
      "name": "owner",
      "outputs": [
        {
          "internalType": "address",
          "name": "",
          "type": "address"
        }
      ],
      "stateMutability": "view",
      "type": "function"
    },
    {
      "inputs": [
        {
          "internalType": "uint256",
          "name": "tokenId",
          "type": "uint256"
        }
      ],
      "name": "ownerOf",
      "outputs": [
        {
          "internalType": "address",
          "name": "",
          "type": "address"
        }
      ],
      "stateMutability": "view",
      "type": "function"
    },
    {
      "inputs": [],
      "name": "pauseMinting",
      "outputs": [],
      "stateMutability": "nonpayable",
      "type": "function"
    },
    {
      "inputs": [
        {
          "internalType": "string",
          "name": "newBaseURI",
          "type": "string"
        }
      ],
      "name": "setBaseURI",
      "outputs": [],
      "stateMutability": "nonpayable",
      "type": "function"
    },
    {
      "inputs": [
        {
          "internalType": "uint256",
          "name": "",
          "type": "uint256"
        }
      ],
      "name": "tokenMetadata",
      "outputs": [
        {
          "internalType": "string",
          "name": "name",
          "type": "string"
        },
        {
          "internalType": "string",
          "name": "description",
          "type": "string"
        },
        {
          "internalType": "string",
          "name": "image",
          "type": "string"
        }
      ],
      "stateMutability": "view",
      "type": "function"
    },
    {
      "inputs": [
        {
          "internalType": "uint256",
          "name": "tokenId",
          "type": "uint256"
        }
      ],
      "name": "tokenURI",
      "outputs": [
        {
          "internalType": "string",
          "name": "",
          "type": "string"
        }
      ],
      "stateMutability": "view",
      "type": "function"
    },
    {
      "inputs": [],
      "name": "totalSupply",
      "outputs": [
        {
          "internalType": "uint256",
          "name": "",
          "type": "uint256"
        }
      ],
      "stateMutability": "view",
      "type": "function"
    },
    {
      "inputs": [],
      "name": "unpauseMinting",
      "outputs": [],
      "stateMutability": "nonpayable",
      "type": "function"
    },
    {
      "inputs": [],
      "name": "withdraw",
      "outputs": [],
      "stateMutability": "nonpayable",
      "type": "function"
    },
    {
      "stateMutability": "payable",
      "type": "receive"
    }
  ],
  "bytecode": "0x60c0604052601760809081527f43727970746f2049736c616e6420416476656e7475726500000000000000000060a0526004906200003e908262000165565b5060408051808201909152600381526243494160e81b602082015260059062000068908262000165565b506040518060600160405280602d815260200162001ded602d913960069062000092908262000165565b506008805460ff19169055348015620000a9575f80fd5b5060088054610100600160a81b031916336101000217905562000231565b634e487b7160e01b5f52604160045260245ffd5b600181811c90821680620000f057607f821691505b6020821081036200010f57634e487b7160e01b5f52602260045260245ffd5b50919050565b601f8211156200016057805f5260205f20601f840160051c810160208510156200013c5750805b601f840160051c820191505b818110156200015d575f815560010162000148565b50505b505050565b81516001600160401b03811115620001815762000181620000c7565b6200019981620001928454620000db565b8462000115565b602080601f831160018114620001cf575f8415620001b75750858301515b5f19600386901b1c1916600185901b17855562000229565b5f85815260208120601f198616915b82811015620001ff57888601518255948401946001909101908401620001de565b50858210156200021d57878501515f19600388901b60f8161c191681555b505060018460011b0185555b505050505050565b611bae806200023f5f395ff3fe608060405260043610610108575f3560e01c806370a0823111610092578063ae20032211610062578063ae200322146102d2578063c002d23d146102e6578063c87b56dd14610300578063da8fbf2a1461032c578063e1a283d614610340575f80fd5b806370a0823114610242578063755edd17146102765780638da5cb5b14610295578063a7f93ebd146102b9575f80fd5b80634c0f38c2116100d85780634c0f38c21461016957806355f804b31461017d5780636352211e1461019c5780636914db60146101e85780636be9a6f114610216575f80fd5b806314f710fe1461011357806318160ddd1461011d57806332cb6b0c146101405780633ccfd60b14610155575f80fd5b3661010f57005b5f80fd5b61011b610369565b005b348015610128575f80fd5b506007545b6040519081526020015b60405180910390f35b34801561014b575f80fd5b5061012d61271081565b348015610160575f80fd5b5061011b6105b2565b348015610174575f80fd5b5061271061012d565b348015610188575f80fd5b5061011b6101973660046114cc565b6106c1565b3480156101a7575f80fd5b506101d06101b6366004611577565b5f908152602081905260409020546001600160a01b031690565b6040516001600160a01b039091168152602001610137565b3480156101f3575f80fd5b50610207610202366004611577565b6106fc565b604051610137939291906115db565b348015610221575f80fd5b50610235610230366004611577565b6108af565b604051610137919061161d565b34801561024d575f80fd5b5061012d61025c3660046116d6565b6001600160a01b03165f9081526001602052604090205490565b348015610281575f80fd5b5061011b6102903660046116d6565b610bd5565b3480156102a0575f80fd5b506008546101d09061010090046001600160a01b031681565b3480156102c4575f80fd5b506601c6bf5263400061012d565b3480156102dd575f80fd5b5061011b610da8565b3480156102f1575f80fd5b5061012d6601c6bf5263400081565b34801561030b575f80fd5b5061031f61031a366004611577565b610de3565b60405161013791906116fc565b348015610337575f80fd5b5061011b610e72565b34801561034b575f80fd5b506008546103599060ff1681565b6040519015158152602001610137565b60085460ff16156103c15760405162461bcd60e51b815260206004820152601b60248201527f4d696e74696e672069732063757272656e746c7920706175736564000000000060448201526064015b60405180910390fd5b6601c6bf526340003410156104185760405162461bcd60e51b815260206004820181905260248201527f496e73756666696369656e74207061796d656e7420666f72206d696e74696e6760448201526064016103b8565b612710600754106104605760405162461bcd60e51b815260206004820152601260248201527113585e081cdd5c1c1b1e481c995858da195960721b60448201526064016103b8565b600780549081905f61047183611722565b91905055506104803382610eb0565b604051806080016040528061049483610fd8565b6040516020016104a4919061173a565b60405160208183030381529060405281526020016040518060a00160405280606f8152602001611b0a606f9139815260200160066104e184610fd8565b6040516020016104f292919061181b565b604051602081830303815290604052815260200161050f836110dd565b90525f8281526009602052604090208151819061052c908261189a565b5060208201516001820190610541908261189a565b5060408201516002820190610556908261189a565b50606082015180516105729160038401916020909101906113fa565b5050604080518381524260208201523392507f3a8a89b59a31c39a36febecb987e0657ab7b7c73b60ebacb44dcb9886c2d5c8a910160405180910390a250565b60085461010090046001600160a01b031633146105e15760405162461bcd60e51b81526004016103b89061195a565b47806106265760405162461bcd60e51b81526020600482015260146024820152734e6f2066756e647320746f20776974686472617760601b60448201526064016103b8565b6008546040515f9161010090046001600160a01b03169083908381818185875af1925050503d805f8114610675576040519150601f19603f3d011682016040523d82523d5f602084013e61067a565b606091505b50509050806106bd5760405162461bcd60e51b815260206004820152600f60248201526e151c985b9cd9995c8819985a5b1959608a1b60448201526064016103b8565b5050565b60085461010090046001600160a01b031633146106f05760405162461bcd60e51b81526004016103b89061195a565b60066106bd828261189a565b60096020525f908152604090208054819061071690611774565b80601f016020809104026020016040519081016040528092919081815260200182805461074290611774565b801561078d5780601f106107645761010080835404028352916020019161078d565b820191905f5260205f20905b81548152906001019060200180831161077057829003601f168201915b5050505050908060010180546107a290611774565b80601f01602080910402602001604051908101604052809291908181526020018280546107ce90611774565b80156108195780601f106107f057610100808354040283529160200191610819565b820191905f5260205f20905b8154815290600101906020018083116107fc57829003601f168201915b50505050509080600201805461082e90611774565b80601f016020809104026020016040519081016040528092919081815260200182805461085a90611774565b80156108a55780601f1061087c576101008083540402835291602001916108a5565b820191905f5260205f20905b81548152906001019060200180831161088857829003601f168201915b5050505050905083565b6108da6040518060800160405280606081526020016060815260200160608152602001606081525090565b5f828152602081905260409020546001600160a01b03166109345760405162461bcd60e51b8152602060048201526014602482015273151bdad95b88191bd95cc81b9bdd08195e1a5cdd60621b60448201526064016103b8565b5f828152600960205260409081902081516080810190925280548290829061095b90611774565b80601f016020809104026020016040519081016040528092919081815260200182805461098790611774565b80156109d25780601f106109a9576101008083540402835291602001916109d2565b820191905f5260205f20905b8154815290600101906020018083116109b557829003601f168201915b505050505081526020016001820180546109eb90611774565b80601f0160208091040260200160405190810160405280929190818152602001828054610a1790611774565b8015610a625780601f10610a3957610100808354040283529160200191610a62565b820191905f5260205f20905b815481529060010190602001808311610a4557829003601f168201915b50505050508152602001600282018054610a7b90611774565b80601f0160208091040260200160405190810160405280929190818152602001828054610aa790611774565b8015610af25780601f10610ac957610100808354040283529160200191610af2565b820191905f5260205f20905b815481529060010190602001808311610ad557829003601f168201915b5050505050815260200160038201805480602002602001604051908101604052809291908181526020015f905b82821015610bc7578382905f5260205f20018054610b3c90611774565b80601f0160208091040260200160405190810160405280929190818152602001828054610b6890611774565b8015610bb35780601f10610b8a57610100808354040283529160200191610bb3565b820191905f5260205f20905b815481529060010190602001808311610b9657829003601f168201915b505050505081526020019060010190610b1f565b505050915250909392505050565b60085461010090046001600160a01b03163314610c045760405162461bcd60e51b81526004016103b89061195a565b61271060075410610c4c5760405162461bcd60e51b815260206004820152601260248201527113585e081cdd5c1c1b1e481c995858da195960721b60448201526064016103b8565b600780549081905f610c5d83611722565b9190505550610c6c8282610eb0565b6040518060800160405280610c8083610fd8565b604051602001610c90919061173a565b60405160208183030381529060405281526020016040518060a00160405280606f8152602001611b0a606f913981526020016006610ccd84610fd8565b604051602001610cde92919061181b565b6040516020818303038152906040528152602001610cfb836110dd565b90525f82815260096020526040902081518190610d18908261189a565b5060208201516001820190610d2d908261189a565b5060408201516002820190610d42908261189a565b5060608201518051610d5e9160038401916020909101906113fa565b5050604080518381524260208201526001600160a01b03851692507f3a8a89b59a31c39a36febecb987e0657ab7b7c73b60ebacb44dcb9886c2d5c8a910160405180910390a25050565b60085461010090046001600160a01b03163314610dd75760405162461bcd60e51b81526004016103b89061195a565b6008805460ff19169055565b5f818152602081905260409020546060906001600160a01b0316610e405760405162461bcd60e51b8152602060048201526014602482015273151bdad95b88191bd95cc81b9bdd08195e1a5cdd60621b60448201526064016103b8565b6006610e4b83610fd8565b604051602001610e5c92919061199b565b6040516020818303038152906040529050919050565b60085461010090046001600160a01b03163314610ea15760405162461bcd60e51b81526004016103b89061195a565b6008805460ff19166001179055565b6001600160a01b038216610efd5760405162461bcd60e51b81526020600482015260146024820152734d696e7420746f207a65726f206164647265737360601b60448201526064016103b8565b5f818152602081905260409020546001600160a01b031615610f585760405162461bcd60e51b8152602060048201526014602482015273151bdad95b88185b1c9958591e481b5a5b9d195960621b60448201526064016103b8565b6001600160a01b0382165f908152600160205260408120805491610f7b83611722565b90915550505f8181526020819052604080822080546001600160a01b0319166001600160a01b03861690811790915590518392907fddf252ad1be2c89b69c2b068fc378daa952ba7f163c4a11628f55a4df523b3ef908290a45050565b6060815f03610ffe5750506040805180820190915260018152600360fc1b602082015290565b815f5b8115611027578061101181611722565b91506110209050600a836119e3565b9150611001565b5f8167ffffffffffffffff811115611041576110416114b8565b6040519080825280601f01601f19166020018201604052801561106b576020820181803683370190505b5090505b84156110d5576110806001836119f6565b915061108d600a86611a0f565b611098906030611a22565b60f81b8183815181106110ad576110ad611a35565b60200101906001600160f81b03191690815f1a9053506110ce600a866119e3565b945061106f565b949350505050565b60408051600480825260a082019092526060915f9190816020015b60608152602001906001900390816110f85790505090506111188361122c565b6040516020016111289190611a49565b604051602081830303815290604052815f8151811061114957611149611a35565b602002602001018190525061115d83611310565b60405160200161116d9190611a78565b6040516020818303038152906040528160018151811061118f5761118f611a35565b60200260200101819052506111a38361133b565b6040516020016111b39190611aa6565b604051602081830303815290604052816002815181106111d5576111d5611a35565b60200260200101819052506111e9836113eb565b6040516020016111f99190611ad6565b6040516020818303038152906040528160038151811061121b5761121b611a35565b602090810291909101015292915050565b60605f61123a600584611a0f565b9050805f0361126757505060408051808201909152600681526521b7b6b6b7b760d11b6020820152919050565b806001036112955750506040805180820190915260088152672ab731b7b6b6b7b760c11b6020820152919050565b806002036112bf5750506040805180820190915260048152635261726560e01b6020820152919050565b806003036112e95750506040805180820190915260048152634570696360e01b6020820152919050565b50506040805180820190915260098152684c6567656e6461727960b81b6020820152919050565b60605f61131e606484611a0f565b611329906001611a22565b905061133481610fd8565b9392505050565b60605f611349600484611a0f565b9050805f036113745750506040805180820190915260048152634669726560e01b6020820152919050565b8060010361139f5750506040805180820190915260058152642bb0ba32b960d91b6020820152919050565b806002036113ca57505060408051808201909152600581526408ac2e4e8d60db1b6020820152919050565b505060408051808201909152600381526220b4b960e91b6020820152919050565b60605f61131e6103e8846119e3565b828054828255905f5260205f2090810192821561143e579160200282015b8281111561143e578251829061142e908261189a565b5091602001919060010190611418565b5061144a92915061144e565b5090565b8082111561144a575f611461828261146a565b5060010161144e565b50805461147690611774565b5f825580601f10611485575050565b601f0160209004905f5260205f20908101906114a191906114a4565b50565b5b8082111561144a575f81556001016114a5565b634e487b7160e01b5f52604160045260245ffd5b5f602082840312156114dc575f80fd5b813567ffffffffffffffff808211156114f3575f80fd5b818401915084601f830112611506575f80fd5b813581811115611518576115186114b8565b604051601f8201601f19908116603f01168101908382118183101715611540576115406114b8565b81604052828152876020848701011115611558575f80fd5b826020860160208301375f928101602001929092525095945050505050565b5f60208284031215611587575f80fd5b5035919050565b5f5b838110156115a8578181015183820152602001611590565b50505f910152565b5f81518084526115c781602086016020860161158e565b601f01601f19169290920160200192915050565b606081525f6115ed60608301866115b0565b82810360208401526115ff81866115b0565b9050828103604084015261161381856115b0565b9695505050505050565b5f6020808352835160808285015261163860a08501826115b0565b905081850151601f198086840301604087015261165583836115b0565b9250604087015191508086840301606087015261167283836115b0565b60608801518782038301608089015280518083529194508501925084840190600581901b850186015f5b828110156116c857848783030184526116b68287516115b0565b9588019593880193915060010161169c565b509998505050505050505050565b5f602082840312156116e6575f80fd5b81356001600160a01b0381168114611334575f80fd5b602081525f61133460208301846115b0565b634e487b7160e01b5f52601160045260245ffd5b5f600182016117335761173361170e565b5060010190565b7243727970746f2049736c616e64204e4654202360681b81525f825161176781601385016020870161158e565b9190910160130192915050565b600181811c9082168061178857607f821691505b6020821081036117a657634e487b7160e01b5f52602260045260245ffd5b50919050565b5f81546117b881611774565b600182811680156117d057600181146117e557611811565b60ff1984168752821515830287019450611811565b855f526020805f205f5b858110156118085781548a8201529084019082016117ef565b50505082870194505b5050505092915050565b5f61182682856117ac565b835161183681836020880161158e565b632e706e6760e01b9101908152600401949350505050565b601f82111561189557805f5260205f20601f840160051c810160208510156118735750805b601f840160051c820191505b81811015611892575f815560010161187f565b50505b505050565b815167ffffffffffffffff8111156118b4576118b46114b8565b6118c8816118c28454611774565b8461184e565b602080601f8311600181146118fb575f84156118e45750858301515b5f19600386901b1c1916600185901b178555611952565b5f85815260208120601f198616915b828110156119295788860151825594840194600190910190840161190a565b508582101561194657878501515f19600388901b60f8161c191681555b505060018460011b0185555b505050505050565b60208082526021908201527f4f6e6c79206f776e65722063616e2063616c6c20746869732066756e6374696f6040820152603760f91b606082015260800190565b5f6119a682856117ac565b83516119b681836020880161158e565b64173539b7b760d91b9101908152600501949350505050565b634e487b7160e01b5f52601260045260245ffd5b5f826119f1576119f16119cf565b500490565b81810381811115611a0957611a0961170e565b92915050565b5f82611a1d57611a1d6119cf565b500690565b80820180821115611a0957611a0961170e565b634e487b7160e01b5f52603260045260245ffd5b6702930b934ba3c9d160c51b81525f8251611a6b81600885016020870161158e565b9190910160080192915050565b6602837bbb2b91d160cd1b81525f8251611a9981600785016020870161158e565b9190910160070192915050565b68022b632b6b2b73a1d160bd1b81525f8251611ac981600985016020870161158e565b9190910160090192915050565b6b023b2b732b930ba34b7b71d160a51b81525f8251611afc81600c85016020870161158e565b91909101600c019291505056fe4120756e69717565204e46542066726f6d207468652043727970746f2049736c616e6420416476656e747572652067616d652e2054686973204e465420726570726573656e747320796f7572206a6f75726e657920696e20746865206469676974616c207265766f6c7574696f6e2ea2646970667358221220fa89aba947b47185de55cbc9884986860bf0f46aec3c630a822a0c65aeada57f64736f6c6343000817003368747470733a2f2f63727970746f2d69736c616e642d616476656e747572652e636f6d2f6d657461646174612f",
  "linkReferences": {},
  "deployedLinkReferences": {},
  "immutableReferences": {},
  "inputSourceName": "project/contracts/CryptoIslandNFT.sol",
  "buildInfoId": "solc-0_8_23-a3f2a3ce3546951ccf3e9997decbe68a63ad6aee"
}