{
  "_format": "hh3-artifact-1",
  "contractName": "CryptoIslandToken",
  "sourceName": "contracts/CryptoIslandToken.sol",
  "abi": [
    {
      "inputs": [],
      "stateMutability": "nonpayable",
      "type": "constructor"
    },
    {
      "inputs": [
        {
          "internalType": "address",
          "name": "spender",
          "type": "address"
        },
        {
          "internalType": "uint256",
          "name": "allowance",
          "type": "uint256"
        },
        {
          "internalType": "uint256",
          "name": "needed",
          "type": "uint256"
        }
      ],
      "name": "ERC20InsufficientAllowance",
      "type": "error"
    },
    {
      "inputs": [
        {
          "internalType": "address",
          "name": "sender",
          "type": "address"
        },
        {
          "internalType": "uint256",
          "name": "balance",
          "type": "uint256"
        },
        {
          "internalType": "uint256",
          "name": "needed",
          "type": "uint256"
        }
      ],
      "name": "ERC20InsufficientBalance",
      "type": "error"
    },
    {
      "inputs": [
        {
          "internalType": "address",
          "name": "approver",
          "type": "address"
        }
      ],
      "name": "ERC20InvalidApprover",
      "type": "error"
    },
    {
      "inputs": [
        {
          "internalType": "address",
          "name": "receiver",
          "type": "address"
        }
      ],
      "name": "ERC20InvalidReceiver",
      "type": "error"
    },
    {
      "inputs": [
        {
          "internalType": "address",
          "name": "sender",
          "type": "address"
        }
      ],
      "name": "ERC20InvalidSender",
      "type": "error"
    },
    {
      "inputs": [
        {
          "internalType": "address",
          "name": "spender",
          "type": "address"
        }
      ],
      "name": "ERC20InvalidSpender",
      "type": "error"
    },
    {
      "inputs": [],
      "name": "EnforcedPause",
      "type": "error"
    },
    {
      "inputs": [],
      "name": "ExpectedPause",
      "type": "error"
    },
    {
      "inputs": [
        {
          "internalType": "address",
          "name": "owner",
          "type": "address"
        }
      ],
      "name": "OwnableInvalidOwner",
      "type": "error"
    },
    {
      "inputs": [
        {
          "internalType": "address",
          "name": "account",
          "type": "address"
        }
      ],
      "name": "OwnableUnauthorizedAccount",
      "type": "error"
    },
    {
      "inputs": [],
      "name": "ReentrancyGuardReentrantCall",
      "type": "error"
    },
    {
      "anonymous": false,
      "inputs": [
        {
          "indexed": true,
          "internalType": "address",
          "name": "owner",
          "type": "address"
        },
        {
          "indexed": true,
          "internalType": "address",
          "name": "spender",
          "type": "address"
        },
        {
          "indexed": false,
          "internalType": "uint256",
          "name": "value",
          "type": "uint256"
        }
      ],
      "name": "Approval",
      "type": "event"
    },
    {
      "anonymous": false,
      "inputs": [
        {
          "indexed": true,
          "internalType": "address",
          "name": "player",
          "type": "address"
        },
        {
          "indexed": false,
          "internalType": "uint256",
          "name": "amount",
          "type": "uint256"
        },
        {
          "indexed": false,
          "internalType": "string",
          "name": "gameAction",
          "type": "string"
        }
      ],
      "name": "GameRewardEarned",
      "type": "event"
    },
    {
      "anonymous": false,
      "inputs": [
        {
          "indexed": true,
          "internalType": "address",
          "name": "previousOwner",
          "type": "address"
        },
        {
          "indexed": true,
          "internalType": "address",
          "name": "newOwner",
          "type": "address"
        }
      ],
      "name": "OwnershipTransferred",
      "type": "event"
    },
    {
      "anonymous": false,
      "inputs": [
        {
          "indexed": false,
          "internalType": "address",
          "name": "account",
          "type": "address"
        }
      ],
      "name": "Paused",
      "type": "event"
    },
    {
      "anonymous": false,
      "inputs": [
        {
          "indexed": true,
          "internalType": "address",
          "name": "staker",
          "type": "address"
        },
        {
          "indexed": false,
          "internalType": "uint256",
          "name": "amount",
          "type": "uint256"
        },
        {
          "indexed": false,
          "internalType": "uint256",
          "name": "timestamp",
          "type": "uint256"
        }
      ],
      "name": "RewardsClaimed",
      "type": "event"
    },
    {
      "anonymous": false,
      "inputs": [
        {
          "indexed": true,
          "internalType": "address",
          "name": "to",
          "type": "address"
        },
        {
          "indexed": false,
          "internalType": "uint256",
          "name": "amount",
          "type": "uint256"
        },
        {
          "indexed": false,
          "internalType": "uint256",
          "name": "timestamp",
          "type": "uint256"
        }
      ],
      "name": "TokensMinted",
      "type": "event"
    },
    {
      "anonymous": false,
      "inputs": [
        {
          "indexed": true,
          "internalType": "address",
          "name": "staker",
          "type": "address"
        },
        {
          "indexed": false,
          "internalType": "uint256",
          "name": "amount",
          "type": "uint256"
        },
        {
          "indexed": false,
          "internalType": "uint256",
          "name": "timestamp",
          "type": "uint256"
        }
      ],
      "name": "TokensStaked",
      "type": "event"
    },
    {
      "anonymous": false,
      "inputs": [
        {
          "indexed": true,
          "internalType": "address",
          "name": "staker",
          "type": "address"
        },
        {
          "indexed": false,
          "internalType": "uint256",
          "name": "amount",
          "type": "uint256"
        },
        {
          "indexed": false,
          "internalType": "uint256",
          "name": "timestamp",
          "type": "uint256"
        }
      ],
      "name": "TokensUnstaked",
      "type": "event"
    },
    {
      "anonymous": false,
      "inputs": [
        {
          "indexed": true,
          "internalType": "address",
          "name": "from",
          "type": "address"
        },
        {
          "indexed": true,
          "internalType": "address",
          "name": "to",
          "type": "address"
        },
        {
          "indexed": false,
          "internalType": "uint256",
          "name": "value",
          "type": "uint256"
        }
      ],
      "name": "Transfer",
      "type": "event"
    },
    {
      "anonymous": false,
      "inputs": [
        {
          "indexed": false,
          "internalType": "address",
          "name": "account",
          "type": "address"
        }
      ],
      "name": "Unpaused",
      "type": "event"
    },
    {
      "inputs": [],
      "name": "INITIAL_SUPPLY",
      "outputs": [
        {
          "internalType": "uint256",
          "name": "",
          "type": "uint256"
        }
      ],
      "stateMutability": "view",
      "type": "function"
    },
    {
      "inputs": [],
      "name": "MAX_SUPPLY",
      "outputs": [
        {
          "internalType": "uint256",
          "name": "",
          "type": "uint256"
        }
      ],
      "stateMutability": "view",
      "type": "function"
    },
    {
      "inputs": [],
      "name": "MINT_PRICE",
      "outputs": [
        {
          "internalType": "uint256",
          "name": "",
          "type": "uint256"
        }
      ],
      "stateMutability": "view",
      "type": "function"
    },
    {
      "inputs": [],
      "name": "REWARD_INTERVAL",
      "outputs": [
        {
          "internalType": "uint256",
          "name": "",
          "type": "uint256"
        }
      ],
      "stateMutability": "view",
      "type": "function"
    },
    {
      "inputs": [],
      "name": "REWARD_RATE",
      "outputs": [
        {
          "internalType": "uint256",
          "name": "",
          "type": "uint256"
        }
      ],
      "stateMutability": "view",
      "type": "function"
    },
    {
      "inputs": [
        {
          "internalType": "address",
          "name": "gameContract",
          "type": "address"
        }
      ],
      "name": "addGameContract",
      "outputs": [],
      "stateMutability": "nonpayable",
      "type": "function"
    },
    {
      "inputs": [
        {
          "internalType": "address",
          "name": "owner",
          "type": "address"
        },
        {
          "internalType": "address",
          "name": "spender",
          "type": "address"
        }
      ],
      "name": "allowance",
      "outputs": [
        {
          "internalType": "uint256",
          "name": "",
          "type": "uint256"
        }
      ],
      "stateMutability": "view",
      "type": "function"
    },
    {
      "inputs": [
        {
          "internalType": "address",
          "name": "spender",
          "type": "address"
        },
        {
          "internalType": "uint256",
          "name": "value",
          "type": "uint256"
        }
      ],
      "name": "approve",
      "outputs": [
        {
          "internalType": "bool",
          "name": "",
          "type": "bool"
        }
      ],
      "stateMutability": "nonpayable",
      "type": "function"
    },
    {
      "inputs": [
        {
          "internalType": "address",
          "name": "account",
          "type": "address"
        }
      ],
      "name": "balanceOf",
      "outputs": [
        {
          "internalType": "uint256",
          "name": "",
          "type": "uint256"
        }
      ],
      "stateMutability": "view",
      "type": "function"
    },
    {
      "inputs": [
        {
          "internalType": "address",
          "name": "stakerAddr",
          "type": "address"
        }
      ],
      "name": "calculateRewards",
      "outputs": [
        {
          "internalType": "uint256",
          "name": "",
          "type": "uint256"
        }
      ],
      "stateMutability": "view",
      "type": "function"
    },
    {
      "inputs": [],
      "name": "claimRewards",
      "outputs": [],
      "stateMutability": "nonpayable",
      "type": "function"
    },
    {
      "inputs": [],
      "name": "decimals",
      "outputs": [
        {
          "internalType": "uint8",
          "name": "",
          "type": "uint8"
        }
      ],
      "stateMutability": "view",
      "type": "function"
    },
    {
      "inputs": [
        {
          "internalType": "address",
          "name": "player",
          "type": "address"
        },
        {
          "internalType": "uint256",
          "name": "amount",
          "type": "uint256"
        },
        {
          "internalType": "string",
          "name": "gameAction",
          "type": "string"
        }
      ],
      "name": "earnGameReward",
      "outputs": [],
      "stateMutability": "nonpayable",
      "type": "function"
    },
    {
      "inputs": [
        {
          "internalType": "address",
          "name": "",
          "type": "address"
        }
      ],
      "name": "gameContracts",
      "outputs": [
        {
          "internalType": "bool",
          "name": "",
          "type": "bool"
        }
      ],
      "stateMutability": "view",
      "type": "function"
    },
    {
      "inputs": [
        {
          "internalType": "address",
          "name": "",
          "type": "address"
        }
      ],
      "name": "gameRewards",
      "outputs": [
        {
          "internalType": "uint256",
          "name": "",
          "type": "uint256"
        }
      ],
      "stateMutability": "view",
      "type": "function"
    },
    {
      "inputs": [
        {
          "internalType": "address",
          "name": "to",
          "type": "address"
        }
      ],
      "name": "initializeSupply",
      "outputs": [],
      "stateMutability": "nonpayable",
      "type": "function"
    },
    {
      "inputs": [
        {
          "internalType": "address",
          "name": "to",
          "type": "address"
        },
        {
          "internalType": "uint256",
          "name": "amount",
          "type": "uint256"
        }
      ],
      "name": "mintTokens",
      "outputs": [],
      "stateMutability": "nonpayable",
      "type": "function"
    },
    {
      "inputs": [
        {
          "internalType": "uint256",
          "name": "amount",
          "type": "uint256"
        }
      ],
      "name": "mintWithAVAX",
      "outputs": [],
      "stateMutability": "payable",
      "type": "function"
    },
    {
      "inputs": [],
      "name": "name",
      "outputs": [
        {
          "internalType": "string",
          "name": "",
          "type": "string"
        }
      ],
      "stateMutability": "view",
      "type": "function"
    },
    {
      "inputs": [],
      "name": "owner",
      "outputs": [
        {
          "internalType": "address",
          "name": "",
          "type": "address"
        }
      ],
      "stateMutability": "view",
      "type": "function"
    },
    {
      "inputs": [],
      "name": "pause",
      "outputs": [],
      "stateMutability": "nonpayable",
      "type": "function"
    },
    {
      "inputs": [],
      "name": "paused",
      "outputs": [
        {
          "internalType": "bool",
          "name": "",
          "type": "bool"
        }
      ],
      "stateMutability": "view",
      "type": "function"
    },
    {
      "inputs": [
        {
          "internalType": "address",
          "name": "gameContract",
          "type": "address"
        }
      ],
      "name": "removeGameContract",
      "outputs": [],
      "stateMutability": "nonpayable",
      "type": "function"
    },
    {
      "inputs": [],
      "name": "renounceOwnership",
      "outputs": [],
      "stateMutability": "nonpayable",
      "type": "function"
    },
    {
      "inputs": [
        {
          "internalType": "address",
          "name": "player",
          "type": "address"
        },
        {
          "internalType": "uint256",
          "name": "amount",
          "type": "uint256"
        }
      ],
      "name": "spendGameTokens",
      "outputs": [],
      "stateMutability": "nonpayable",
      "type": "function"
    },
    {
      "inputs": [
        {
          "internalType": "uint256",
          "name": "amount",
          "type": "uint256"
        }
      ],
      "name": "stakeTokens",
      "outputs": [],
      "stateMutability": "nonpayable",
      "type": "function"
    },
    {
      "inputs": [
        {
          "internalType": "address",
          "name": "",
          "type": "address"
        }
      ],
      "name": "stakers",
      "outputs": [
        {
          "internalType": "uint256",
          "name": "stakedAmount",
          "type": "uint256"
        },
        {
          "internalType": "uint256",
          "name": "stakingTimestamp",
          "type": "uint256"
        },
        {
          "internalType": "bool",
          "name": "isStaking",
          "type": "bool"
        }
      ],
      "stateMutability": "view",
      "type": "function"
    },
    {
      "inputs": [],
      "name": "symbol",
      "outputs": [
        {
          "internalType": "string",
          "name": "",
          "type": "string"
        }
      ],
      "stateMutability": "view",
      "type": "function"
    },
    {
      "inputs": [],
      "name": "totalStaked",
      "outputs": [
        {
          "internalType": "uint256",
          "name": "",
          "type": "uint256"
        }
      ],
      "stateMutability": "view",
      "type": "function"
    },
    {
      "inputs": [],
      "name": "totalSupply",
      "outputs": [
        {
          "internalType": "uint256",
          "name": "",
          "type": "uint256"
        }
      ],
      "stateMutability": "view",
      "type": "function"
    },
    {
      "inputs": [
        {
          "internalType": "address",
          "name": "to",
          "type": "address"
        },
        {
          "internalType": "uint256",
          "name": "value",
          "type": "uint256"
        }
      ],
      "name": "transfer",
      "outputs": [
        {
          "internalType": "bool",
          "name": "",
          "type": "bool"
        }
      ],
      "stateMutability": "nonpayable",
      "type": "function"
    },
    {
      "inputs": [
        {
          "internalType": "address",
          "name": "from",
          "type": "address"
        },
        {
          "internalType": "address",
          "name": "to",
          "type": "address"
        },
        {
          "internalType": "uint256",
          "name": "value",
          "type": "uint256"
        }
      ],
      "name": "transferFrom",
      "outputs": [
        {
          "internalType": "bool",
          "name": "",
          "type": "bool"
        }
      ],
      "stateMutability": "nonpayable",
      "type": "function"
    },
    {
      "inputs": [
        {
          "internalType": "address",
          "name": "newOwner",
          "type": "address"
        }
      ],
      "name": "transferOwnership",
      "outputs": [],
      "stateMutability": "nonpayable",
      "type": "function"
    },
    {
      "inputs": [],
      "name": "unpause",
      "outputs": [],
      "stateMutability": "nonpayable",
      "type": "function"
    },
    {
      "inputs": [],
      "name": "unstakeTokens",
      "outputs": [],
      "stateMutability": "nonpayable",
      "type": "function"
    },
    {
      "inputs": [],
      "name": "withdrawAVAX",
      "outputs": [],
      "stateMutability": "nonpayable",
      "type": "function"
    }
  ],
  "bytecode": "0x608060405234801562000010575f80fd5b50336040518060400160405280601381526020017f43727970746f2049736c616e6420546f6b656e000000000000000000000000008152506040518060400160405280600381526020016210d25560ea1b8152508160039081620000759190620001bb565b506004620000848282620001bb565b5050506001600160a01b038116620000b557604051631e4fbdf760e01b81525f600482015260240160405180910390fd5b620000c081620000cc565b50600160065562000287565b600580546001600160a01b038381166001600160a01b0319831681179093556040519116919082907f8be0079c531659141344cd1fd0a4f28419497f9722a3daafe3b4186f6b6457e0905f90a35050565b634e487b7160e01b5f52604160045260245ffd5b600181811c908216806200014657607f821691505b6020821081036200016557634e487b7160e01b5f52602260045260245ffd5b50919050565b601f821115620001b657805f5260205f20601f840160051c81016020851015620001925750805b601f840160051c820191505b81811015620001b3575f81556001016200019e565b50505b505050565b81516001600160401b03811115620001d757620001d76200011d565b620001ef81620001e8845462000131565b846200016b565b602080601f83116001811462000225575f84156200020d5750858301515b5f19600386901b1c1916600185901b1785556200027f565b5f85815260208120601f198616915b82811015620002555788860151825594840194600190910190840162000234565b50858210156200027357878501515f19600388901b60f8161c191681555b505060018460011b0185555b505050505050565b611a0780620002955f395ff3fe608060405260043610610207575f3560e01c80636ddd474d116101135780639168ae721161009d578063abce145b1161006d578063abce145b146105e8578063c002d23d146105fc578063dd62ed3e14610616578063f0dda65c1461065a578063f2fde38b14610679575f80fd5b80639168ae721461054757806395d89b41146105a1578063a5ce413b146105b5578063a9059cbb146105c9575f80fd5b8063817b1cd2116100e3578063817b1cd2146104c557806381cd08ee146104da5780638456cb59146104f95780638da5cb5b1461050d5780638f5b8ee214610534575f80fd5b80636ddd474d1461043057806370a082311461045e578063715018a6146104925780637547c7a3146104a6575f80fd5b8063372500ab116101945780635c74e025116101645780635c74e0251461039e5780635c975abb146103bd5780635dbdda69146103db57806364ab8675146103f25780636aa679d414610411575f80fd5b8063372500ab146103435780633f4ba83a1461035757806346565bed1461036b5780635997bb371461038a575f80fd5b806318160ddd116101da57806318160ddd146102ba57806323b872dd146102ce5780632ff2e9dc146102ed578063313ce5671461030a57806332cb6b0c14610325575f80fd5b8063023b14a51461020b57806306fdde0314610249578063095ea7b31461026a5780630bdc0cda14610299575b5f80fd5b348015610216575f80fd5b506102366102253660046116c2565b600a6020525f908152604090205481565b6040519081526020015b60405180910390f35b348015610254575f80fd5b5061025d610698565b6040516102409190611725565b348015610275575f80fd5b50610289610284366004611737565b610728565b6040519015158152602001610240565b3480156102a4575f80fd5b506102b86102b33660046116c2565b610741565b005b3480156102c5575f80fd5b50600254610236565b3480156102d9575f80fd5b506102896102e836600461175f565b6107ab565b3480156102f8575f80fd5b5061023669d3c21bcecceda100000081565b348015610315575f80fd5b5060405160128152602001610240565b348015610330575f80fd5b506102366a084595161401484a00000081565b34801561034e575f80fd5b506102b86107ce565b348015610362575f80fd5b506102b8610842565b348015610376575f80fd5b506102b8610385366004611737565b610852565b348015610395575f80fd5b50610236600a81565b3480156103a9575f80fd5b506102b86103b83660046116c2565b6108d4565b3480156103c8575f80fd5b50600554600160a01b900460ff16610289565b3480156103e6575f80fd5b506102366301e1338081565b3480156103fd575f80fd5b5061023661040c3660046116c2565b6108fc565b34801561041c575f80fd5b506102b861042b3660046117ac565b6109a4565b34801561043b575f80fd5b5061028961044a3660046116c2565b60096020525f908152604090205460ff1681565b348015610469575f80fd5b506102366104783660046116c2565b6001600160a01b03165f9081526020819052604090205490565b34801561049d575f80fd5b506102b8610ad5565b3480156104b1575f80fd5b506102b86104c0366004611870565b610ae6565b3480156104d0575f80fd5b5061023660085481565b3480156104e5575f80fd5b506102b86104f43660046116c2565b610c3e565b348015610504575f80fd5b506102b8610c69565b348015610518575f80fd5b506005546040516001600160a01b039091168152602001610240565b6102b8610542366004611870565b610c79565b348015610552575f80fd5b506105846105613660046116c2565b60076020525f908152604090208054600182015460029092015490919060ff1683565b604080519384526020840192909252151590820152606001610240565b3480156105ac575f80fd5b5061025d610e25565b3480156105c0575f80fd5b506102b8610e34565b3480156105d4575f80fd5b506102896105e3366004611737565b610f76565b3480156105f3575f80fd5b506102b8610f83565b348015610607575f80fd5b5061023666038d7ea4c6800081565b348015610621575f80fd5b50610236610630366004611887565b6001600160a01b039182165f90815260016020908152604080832093909416825291909152205490565b348015610665575f80fd5b506102b8610674366004611737565b611065565b348015610684575f80fd5b506102b86106933660046116c2565b611115565b6060600380546106a7906118b8565b80601f01602080910402602001604051908101604052809291908181526020018280546106d3906118b8565b801561071e5780601f106106f55761010080835404028352916020019161071e565b820191905f5260205f20905b81548152906001019060200180831161070157829003601f168201915b5050505050905090565b5f3361073581858561114f565b60019150505b92915050565b61074961115c565b600254156107945760405162461bcd60e51b8152602060048201526013602482015272105b1c9958591e481a5b9a5d1a585b1a5e9959606a1b60448201526064015b60405180910390fd5b6107a88169d3c21bcecceda1000000611189565b50565b5f336107b88582856111bd565b6107c3858585611233565b506001949350505050565b6107d6611290565b6107de6112bb565b335f9081526007602052604090206002015460ff1661082d5760405162461bcd60e51b815260206004820152600b60248201526a4e6f74207374616b696e6760a81b604482015260640161078b565b610836336112e5565b6108406001600655565b565b61084a61115c565b61084061139c565b335f9081526009602052604090205460ff166108a65760405162461bcd60e51b81526020600482015260136024820152724f6e6c792067616d6520636f6e74726163747360681b604482015260640161078b565b5f81116108c55760405162461bcd60e51b815260040161078b906118f0565b6108d0823083611233565b5050565b6108dc61115c565b6001600160a01b03165f908152600960205260409020805460ff19169055565b6001600160a01b0381165f9081526007602090815260408083208151606081018352815481526001820154938101939093526002015460ff16158015918301919091528061094957508051155b1561095657505f92915050565b5f8160200151426109679190611930565b90506109786301e133806064611943565b8251829061098890600a90611943565b6109929190611943565b61099c919061195a565b949350505050565b335f9081526009602052604090205460ff166109f85760405162461bcd60e51b81526020600482015260136024820152724f6e6c792067616d6520636f6e74726163747360681b604482015260640161078b565b5f8211610a175760405162461bcd60e51b815260040161078b906118f0565b6a084595161401484a00000082610a2d60025490565b610a379190611979565b1115610a555760405162461bcd60e51b815260040161078b9061198c565b610a5f8383611189565b6001600160a01b0383165f908152600a602052604081208054849290610a86908490611979565b92505081905550826001600160a01b03167f9dfcf239a23b6ad6a240ce003294522254489e0b77b4a2b547169aab4240a9cc8383604051610ac89291906119b9565b60405180910390a2505050565b610add61115c565b6108405f6113f1565b610aee611290565b610af66112bb565b5f8111610b155760405162461bcd60e51b815260040161078b906118f0565b335f90815260208190526040902054811115610b6a5760405162461bcd60e51b8152602060048201526014602482015273496e73756666696369656e742062616c616e636560601b604482015260640161078b565b335f9081526007602052604090206002015460ff1615610b8d57610b8d336112e5565b610b98333083611233565b335f9081526007602052604081208054839290610bb6908490611979565b9091555050335f908152600760205260408120426001808301919091556002909101805460ff1916909117905560088054839290610bf5908490611979565b90915550506040805182815242602082015233917fdd2a19c3bdd089cbe77c04f5655f83de0504d6140d12c8667646f55d0557c4dc910160405180910390a26107a86001600655565b610c4661115c565b6001600160a01b03165f908152600960205260409020805460ff19166001179055565b610c7161115c565b610840611442565b610c81611290565b805f8111610ca15760405162461bcd60e51b815260040161078b906118f0565b6a084595161401484a00000081610cb760025490565b610cc19190611979565b1115610cdf5760405162461bcd60e51b815260040161078b9061198c565b610cf066038d7ea4c6800083611943565b341015610d335760405162461bcd60e51b8152602060048201526011602482015270092dce6eaccccd2c6d2cadce84082ac82b607b1b604482015260640161078b565b610d3d3383611189565b6040805183815242602082015233917f2e8ac5177a616f2aec08c3048f5021e4e9743ece034e8d83ba5caf76688bb475910160405180910390a25f610d8966038d7ea4c6800084611943565b905080341115610e20575f33610d9f8334611930565b6040515f81818185875af1925050503d805f8114610dd8576040519150601f19603f3d011682016040523d82523d5f602084013e610ddd565b606091505b5050905080610e1e5760405162461bcd60e51b815260206004820152600d60248201526c1499599d5b990819985a5b1959609a1b604482015260640161078b565b505b505050565b6060600480546106a7906118b8565b610e3c611290565b610e446112bb565b335f9081526007602052604090206002015460ff16610e935760405162461bcd60e51b815260206004820152600b60248201526a4e6f74207374616b696e6760a81b604482015260640161078b565b335f9081526007602052604090205480610ee25760405162461bcd60e51b815260206004820152601060248201526f139bc81d1bdad95b9cc81cdd185ad95960821b604482015260640161078b565b610eeb336112e5565b335f90815260076020526040812081815560018101829055600201805460ff1916905560088054839290610f20908490611930565b90915550610f319050303383611233565b6040805182815242602082015233917f6f2d3e000c89d37446b7c0374c0125068ff316d1e3ee302336478a8cd03c2336910160405180910390a2506108406001600655565b5f33610735818585611233565b610f8b61115c565b4780610fc35760405162461bcd60e51b815260206004820152600760248201526609cde4082ac82b60cb1b604482015260640161078b565b5f610fd66005546001600160a01b031690565b6001600160a01b0316826040515f6040518083038185875af1925050503d805f811461101d576040519150601f19603f3d011682016040523d82523d5f602084013e611022565b606091505b50509050806108d05760405162461bcd60e51b815260206004820152600f60248201526e15da5d1a191c985dc819985a5b1959608a1b604482015260640161078b565b61106d61115c565b805f811161108d5760405162461bcd60e51b815260040161078b906118f0565b6a084595161401484a000000816110a360025490565b6110ad9190611979565b11156110cb5760405162461bcd60e51b815260040161078b9061198c565b6110d58383611189565b604080518381524260208201526001600160a01b038516917f2e8ac5177a616f2aec08c3048f5021e4e9743ece034e8d83ba5caf76688bb4759101610ac8565b61111d61115c565b6001600160a01b03811661114657604051631e4fbdf760e01b81525f600482015260240161078b565b6107a8816113f1565b610e208383836001611485565b6005546001600160a01b031633146108405760405163118cdaa760e01b815233600482015260240161078b565b6001600160a01b0382166111b25760405163ec442f0560e01b81525f600482015260240161078b565b6108d05f8383611557565b6001600160a01b038381165f908152600160209081526040808320938616835292905220545f19811015610e1e578181101561122557604051637dc7a0d960e11b81526001600160a01b0384166004820152602481018290526044810183905260640161078b565b610e1e84848484035f611485565b6001600160a01b03831661125c57604051634b637e8f60e11b81525f600482015260240161078b565b6001600160a01b0382166112855760405163ec442f0560e01b81525f600482015260240161078b565b610e20838383611557565b600554600160a01b900460ff16156108405760405163d93c066560e01b815260040160405180910390fd5b6002600654036112de57604051633ee5aeb560e01b815260040160405180910390fd5b6002600655565b5f6112ef826108fc565b90505f811161132d5760405162461bcd60e51b815260206004820152600a6024820152694e6f207265776172647360b01b604482015260640161078b565b6001600160a01b0382165f908152600760205260409020426001909101556113558282611189565b604080518281524260208201526001600160a01b038416917fdacbdde355ba930696a362ea6738feb9f8bd52dfb3d81947558fd3217e23e325910160405180910390a25050565b6113a461167d565b6005805460ff60a01b191690557f5db9ee0a495bf2e6ff9c91a7834c1ba4fdd244a5e8aa4e537bd38aeae4b073aa335b6040516001600160a01b03909116815260200160405180910390a1565b600580546001600160a01b038381166001600160a01b0319831681179093556040519116919082907f8be0079c531659141344cd1fd0a4f28419497f9722a3daafe3b4186f6b6457e0905f90a35050565b61144a611290565b6005805460ff60a01b1916600160a01b1790557f62e78cea01bee320cd4e420270b5ea74000d11b0c9f74754ebdbfc544b05a2586113d43390565b6001600160a01b0384166114ae5760405163e602df0560e01b81525f600482015260240161078b565b6001600160a01b0383166114d757604051634a1406b160e11b81525f600482015260240161078b565b6001600160a01b038085165f9081526001602090815260408083209387168352929052208290558015610e1e57826001600160a01b0316846001600160a01b03167f8c5be1e5ebec7d5bd14f71427d1e84f3dd0314c0f7b2291e5b200ac8c7c3b9258460405161154991815260200190565b60405180910390a350505050565b6001600160a01b038316611581578060025f8282546115769190611979565b909155506115f19050565b6001600160a01b0383165f90815260208190526040902054818110156115d35760405163391434e360e21b81526001600160a01b0385166004820152602481018290526044810183905260640161078b565b6001600160a01b0384165f9081526020819052604090209082900390555b6001600160a01b03821661160d5760028054829003905561162b565b6001600160a01b0382165f9081526020819052604090208054820190555b816001600160a01b0316836001600160a01b03167fddf252ad1be2c89b69c2b068fc378daa952ba7f163c4a11628f55a4df523b3ef8360405161167091815260200190565b60405180910390a3505050565b600554600160a01b900460ff1661084057604051638dfc202b60e01b815260040160405180910390fd5b80356001600160a01b03811681146116bd575f80fd5b919050565b5f602082840312156116d2575f80fd5b6116db826116a7565b9392505050565b5f81518084525f5b81811015611706576020818501810151868301820152016116ea565b505f602082860101526020601f19601f83011685010191505092915050565b602081525f6116db60208301846116e2565b5f8060408385031215611748575f80fd5b611751836116a7565b946020939093013593505050565b5f805f60608486031215611771575f80fd5b61177a846116a7565b9250611788602085016116a7565b9150604084013590509250925092565b634e487b7160e01b5f52604160045260245ffd5b5f805f606084860312156117be575f80fd5b6117c7846116a7565b925060208401359150604084013567ffffffffffffffff808211156117ea575f80fd5b818601915086601f8301126117fd575f80fd5b81358181111561180f5761180f611798565b604051601f8201601f19908116603f0116810190838211818310171561183757611837611798565b8160405282815289602084870101111561184f575f80fd5b826020860160208301375f6020848301015280955050505050509250925092565b5f60208284031215611880575f80fd5b5035919050565b5f8060408385031215611898575f80fd5b6118a1836116a7565b91506118af602084016116a7565b90509250929050565b600181811c908216806118cc57607f821691505b6020821081036118ea57634e487b7160e01b5f52602260045260245ffd5b50919050565b6020808252601290820152710416d6f756e74206d757374206265203e20360741b604082015260600190565b634e487b7160e01b5f52601160045260245ffd5b8181038181111561073b5761073b61191c565b808202811582820484141761073b5761073b61191c565b5f8261197457634e487b7160e01b5f52601260045260245ffd5b500490565b8082018082111561073b5761073b61191c565b60208082526013908201527213585e081cdd5c1c1b1e48195e18d959591959606a1b604082015260600190565b828152604060208201525f61099c60408301846116e256fea2646970667358221220e1881550f95dc93cc8e7be21e1f453796697586b3e8f9e3f4f8f73e030edc07d64736f6c63430008170033",
  "linkReferences": {},
  "deployedLinkReferences": {},
  "immutableReferences": {},
  "inputSourceName": "project/contracts/CryptoIslandToken.sol",
  "buildInfoId": "solc-0_8_23-a3f2a3ce3546951ccf3e9997decbe68a63ad6aee"
}